{
  "_format": "hh-sol-artifact-1",
  "contractName": "UniArbi",
  "sourceName": "contracts/UniArbi.sol",
  "abi": [
    {
      "inputs": [
        {
          "internalType": "address[]",
          "name": "_tokens",
          "type": "address[]"
        },
        {
          "internalType": "address[]",
          "name": "_spenders",
          "type": "address[]"
        }
      ],
      "name": "approve",
      "outputs": [],
      "stateMutability": "nonpayable",
      "type": "function"
    },
    {
      "inputs": [
        {
          "internalType": "address[]",
          "name": "pairs",
          "type": "address[]"
        },
        {
          "internalType": "bytes32",
          "name": "meta",
          "type": "bytes32"
        }
      ],
      "name": "execute",
      "outputs": [],
      "stateMutability": "nonpayable",
      "type": "function"
    },
    {
      "inputs": [
        {
          "internalType": "uint256",
          "name": "amount",
          "type": "uint256"
        },
        {
          "internalType": "address[]",
          "name": "pairs",
          "type": "address[]"
        },
        {
          "internalType": "bytes32",
          "name": "meta",
          "type": "bytes32"
        }
      ],
      "name": "getAmountsOut",
      "outputs": [
        {
          "internalType": "uint256[]",
          "name": "amounts",
          "type": "uint256[]"
        }
      ],
      "stateMutability": "view",
      "type": "function"
    }
  ],
  "bytecode": "0x608060405234801561001057600080fd5b506112fa806100206000396000f3fe608060405234801561001057600080fd5b50600436106100415760003560e01c8063301e77f7146100465780635bf5c05a146100b657806365dff1e1146101b0575b600080fd5b6100b46004803603604081101561005c57600080fd5b810190602081018135600160201b81111561007657600080fd5b82018360208201111561008857600080fd5b803590602001918460208302840111600160201b831117156100a957600080fd5b91935091503561026e565b005b610160600480360360608110156100cc57600080fd5b81359190810190604081016020820135600160201b8111156100ed57600080fd5b8201836020820111156100ff57600080fd5b803590602001918460208302840111600160201b8311171561012057600080fd5b9190808060200260200160405190810160405280939291908181526020018383602002808284376000920191909152509295505091359250610ce5915050565b60408051602080825283518183015283519192839290830191858101910280838360005b8381101561019c578181015183820152602001610184565b505050509050019250505060405180910390f35b6100b4600480360360408110156101c657600080fd5b810190602081018135600160201b8111156101e057600080fd5b8201836020820111156101f257600080fd5b803590602001918460208302840111600160201b8311171561021357600080fd5b919390929091602081019035600160201b81111561023057600080fd5b82018360208201111561024257600080fd5b803590602001918460208302840111600160201b8311171561026357600080fd5b509092509050610e9a565b60005a604080516020808702828101820190935286825292935067ffffffffffffffff670de0b6b3a764000060ff87160216926060926102cf92859290918a918a918291850190849080828437600092019190915250899250610ce5915050565b90506000816001835103815181106102e357fe5b60200260200101519050600085601e602081106102fc57fe5b1a6001149050801561033c57610330604051806040016040528060078152602001666861732066656560c81b815250610fbd565b6103e86103de83020491505b73c02aaa39b223fe8d0a0e5c4f27ead9083c756cc26323b872dd338a8a60008161036257fe5b905060200201356001600160a01b0316876040518463ffffffff1660e01b815260040180846001600160a01b03166001600160a01b03168152602001836001600160a01b03166001600160a01b031681526020018281526020019350505050602060405180830381600087803b1580156103db57600080fd5b505af11580156103ef573d6000803e3d6000fd5b505050506040513d602081101561040557600080fd5b50879050600019810160005b8260ff168160ff161015610c105760008b8b8360ff1681811061043057fe5b905060200201356001600160a01b0316905060008a8360ff166020811061045357fe5b1a9050600061046182611066565b9050600061046e8361106f565b905060008660ff168660ff16146104a6578f8f8760010160ff1681811061049157fe5b905060200201356001600160a01b03166104a8565b335b905060008b8760010160ff16815181106104be57fe5b6020026020010151905082156106d95783156105d357856001600160a01b031663022c0d9f82600085604051806020016040528060008152506040518563ffffffff1660e01b815260040180858152602001848152602001836001600160a01b03166001600160a01b0316815260200180602001828103825283818151815260200191508051906020019080838360005b8381101561056757818101518382015260200161054f565b50505050905090810190601f1680156105945780820380516001836020036101000a031916815260200191505b5095505050505050600060405180830381600087803b1580156105b657600080fd5b505af11580156105ca573d6000803e3d6000fd5b505050506106ce565b856001600160a01b031663022c0d9f60008385604051806020016040528060008152506040518563ffffffff1660e01b815260040180858152602001848152602001836001600160a01b03166001600160a01b0316815260200180602001828103825283818151815260200191508051906020019080838360005b8381101561066657818101518382015260200161064e565b50505050905090810190601f1680156106935780820380516001836020036101000a031916815260200191505b5095505050505050600060405180830381600087803b1580156106b557600080fd5b505af11580156106c9573d6000803e3d6000fd5b505050505b505050505050610c08565b83156107de57856001600160a01b031663022c0d9f82600030604051806020016040528060008152506040518563ffffffff1660e01b815260040180858152602001848152602001836001600160a01b03166001600160a01b0316815260200180602001828103825283818151815260200191508051906020019080838360005b8381101561077257818101518382015260200161075a565b50505050905090810190601f16801561079f5780820380516001836020036101000a031916815260200191505b5095505050505050600060405180830381600087803b1580156107c157600080fd5b505af11580156107d5573d6000803e3d6000fd5b505050506108d9565b856001600160a01b031663022c0d9f60008330604051806020016040528060008152506040518563ffffffff1660e01b815260040180858152602001848152602001836001600160a01b03166001600160a01b0316815260200180602001828103825283818151815260200191508051906020019080838360005b83811015610871578181015183820152602001610859565b50505050905090810190601f16801561089e5780820380516001836020036101000a031916815260200191505b5095505050505050600060405180830381600087803b1580156108c057600080fd5b505af11580156108d4573d6000803e3d6000fd5b505050505b60018560ff16901c94506108ec85611079565b15610910576106ce737b5982dcab054c377517759d0d2a3a5d02615ab88284611082565b610919856110f6565b156109d75761093c737b5982dcab054c377517759d0d2a3a5d02615ab8826110ff565b6040805163a9059cbb60e01b81526001600160a01b0384166004820152602481018390529051732260fac5e5542a773aa44fbcfedf7c193bc2c5999163a9059cbb9160448083019260209291908290030181600087803b15801561099f57600080fd5b505af11580156109b3573d6000803e3d6000fd5b505050506040513d60208110156109c957600080fd5b50610c089650505050505050565b6109e085611161565b15610a03576106ce72a66189143279b6db9b77294688f47959f376428284611082565b610a0c8561116a565b15610a9157610a2e72a66189143279b6db9b77294688f47959f37642826110ff565b6040805163a9059cbb60e01b81526001600160a01b0384166004820152602481018390529051736b175474e89094c44da98b954eedeac495271d0f9163a9059cbb9160448083019260209291908290030181600087803b15801561099f57600080fd5b610a9a85611173565b15610abe576106ce7317b8c1a92b66b1cf3092c5d223cb3a129023b6698284611082565b610ac78561117c565b15610bce57610aea7317b8c1a92b66b1cf3092c5d223cb3a129023b669826110ff565b6040805163a9059cbb60e01b81526001600160a01b03841660048201526024810183905290517362359ed7505efc61ff1d56fef82158ccaffa23d79163a9059cbb9160448083019260209291908290030181600087803b158015610b4d57600080fd5b505af1158015610b61573d6000803e3d6000fd5b505050506040513d6020811015610b7757600080fd5b50508b516103e8908d9060ff60028b0116908110610b9157fe5b60200260200101516103de0281610ba457fe5b048c8860020160ff1681518110610bb757fe5b602002602001018181525050505050505050610c08565b6040805162461bcd60e51b815260206004820152600a60248201526977726f6e6720666c616760b01b604482015290519081900360640190fd5b600101610411565b50505050505050641bf08eb0003a1115610cdf576000601036025a8361520801030190506d4946c0e9f43f4dee607b0ef1fa1c6001600160a01b031663079d229f3361a3db8461374a0181610c6157fe5b046040518363ffffffff1660e01b815260040180836001600160a01b03166001600160a01b0316815260200182815260200192505050602060405180830381600087803b158015610cb157600080fd5b505af1158015610cc5573d6000803e3d6000fd5b505050506040513d6020811015610cdb57600080fd5b5050505b50505050565b6060825160010167ffffffffffffffff81118015610d0257600080fd5b50604051908082528060200260200182016040528015610d2c578160200160208202803683370190505b5090508381600081518110610d3d57fe5b60200260200101818152505060005b8351811015610e9257600080858381518110610d6457fe5b60200260200101516001600160a01b0316630902f1ac6040518163ffffffff1660e01b815260040160606040518083038186803b158015610da457600080fd5b505afa158015610db8573d6000803e3d6000fd5b505050506040513d6060811015610dce57600080fd5b5080516020918201516dffffffffffffffffffffffffffff9182169450169150600090610e0790879086908110610e0157fe5b1a611066565b90508015610e4d57610e2d858581518110610e1e57fe5b60200260200101518385611185565b858560010181518110610e3c57fe5b602002602001018181525050610e87565b610e6b858581518110610e5c57fe5b60200260200101518484611185565b858560010181518110610e7a57fe5b6020026020010181815250505b505050600101610d4c565b509392505050565b60005b83811015610fb657848482818110610eb157fe5b905060200201356001600160a01b03166001600160a01b031663095ea7b3848484818110610edb57fe5b905060200201356001600160a01b03166000196040518363ffffffff1660e01b815260040180836001600160a01b03166001600160a01b0316815260200182815260200192505050602060405180830381600087803b158015610f3d57600080fd5b505af1158015610f51573d6000803e3d6000fd5b505050506040513d6020811015610f6757600080fd5b5051610fae576040805162461bcd60e51b81526020600482015260116024820152706661696c656420746f20617070726f766560781b604482015290519081900360640190fd5b600101610e9d565b5050505050565b611063816040516024018080602001828103825283818151815260200191508051906020019080838360005b83811015611001578181015183820152602001610fe9565b50505050905090810190601f16801561102e5780820380516001836020036101000a031916815260200191505b5060408051601f198184030181529190526020810180516001600160e01b031663104c13eb60e21b17905292506111eb915050565b50565b60019081161490565b60011c6007161590565b60071660011490565b826001600160a01b031663bf376c7a82846040518363ffffffff1660e01b815260040180836001600160a01b03166001600160a01b0316815260200182815260200192505050600060405180830381600087803b1580156110e257600080fd5b505af1158015610cdb573d6000803e3d6000fd5b60071660021490565b816001600160a01b031663de0e9a3e826040518263ffffffff1660e01b815260040180828152602001915050600060405180830381600087803b15801561114557600080fd5b505af1158015611159573d6000803e3d6000fd5b505050505050565b60071660031490565b60071660041490565b60071660051490565b60071660061490565b60008061119a856103e563ffffffff61120c16565b905060006111ae828563ffffffff61120c16565b905060006111d4836111c8886103e863ffffffff61120c16565b9063ffffffff61127516565b90508082816111df57fe5b04979650505050505050565b80516a636f6e736f6c652e6c6f67602083016000808483855afa5050505050565b60008115806112275750508082028282828161122457fe5b04145b61126f576040805162461bcd60e51b815260206004820152601460248201527364732d6d6174682d6d756c2d6f766572666c6f7760601b604482015290519081900360640190fd5b92915050565b8082018281101561126f576040805162461bcd60e51b815260206004820152601460248201527364732d6d6174682d6164642d6f766572666c6f7760601b604482015290519081900360640190fdfea26469706673582212206c2ceb2c8ee54fc5cebe4d0eb7edf871797dec05b4620fac8d3b233294bb489564736f6c63430006060033",
  "linkReferences": {},
  "deployedLinkReferences": {}
}